:1000000026C03EC070C179C13BC023C139C038C0D1
:1000100037C036C035C034C033C032C031C0000034
:10002000000037000000000038000000000036002B
:10003000020202020202020202020102040810206D
:100040002004100801020000040000000000112438
:100050001FBECFEDCDBF10E0A0E6B0E0E8EFF6E0C8
:1000600002C005900D92A236B107D9F720E0A2E6B2
:10007000B0E001C01D92A837B207E1F789D13AC3B9
:10008000BFCF823089F018F4813051F00895833069
:1000900019F0843009F008958CB58F7D8CBD0895DA
:1000A0008AB58F778ABD08958AB58F7DFBCFCF93B0
:1000B000DF93E7E4F0E08491EDE3F0E0D491E3E353
:1000C000F0E0C491CC2399F08111DBDFEC2FF0E05C
:1000D000EE0FFF1FE65DFF4FA591B491EC91ED236C
:1000E00081E090E009F480E0DF91CF91089580E015
:1000F00090E0FACF1F93CF93DF93282F30E0F901E0
:10010000EC5BFF4F8491F901E65CFF4FD491F9015C
:10011000E05DFF4FC491CC23A1F0162F8111B1DF18
:10012000EC2FF0E0EE0FFF1FEC5DFF4FA591B491B7
:100130008FB7F894EC91111108C0D095DE23DC93B1
:100140008FBFDF91CF911F910895DE2BF8CFCF9312
:10015000DF9390E0FC01E65CFF4F2491805D9F4FB0
:10016000FC0184918823D1F090E0880F991FFC0155
:10017000E25EFF4FA591B491FC01EC5DFF4FC5918C
:10018000D49161110EC09FB7F8948C91E22FE09545
:100190008E238C932881E223E8839FBFDF91CF9148
:1001A00008958FB7F894EC91E22BEC938FBFF6CFC4
:1001B0001F93CF93DF93182FEB0161E0C8DF2097E7
:1001C00031F460E0812FDF91CF911F9193CFCF3F2A
:1001D000D10511F461E0F6CFE12FF0E0EC5BFF4FC9
:1001E000E491E230C1F030F4E13069F0C038D1057B
:1001F0008CF7E7CFE330A1F0E430C1F78CB5806233
:100200008CBDCBBD04C08AB580688ABDC9BDDF91F5
:10021000CF911F9108958AB580628ABDC8BDF7CF7E
:100220008CB580628CBDCEBDF2CFF89410BE1FBCE1
:1002300082E08CBD8FEF8EBD8DBD80E489BF86E8E6
:1002400080BF83B7887F83BF83B7816083BF789483
:1002500008951F920F920FB60F9211242F933F9380
:100260008F939F93AF93BF9380917400909175008B
:10027000A0917600B09177003091730020E3230FB6
:100280002D3758F54096A11DB11D20937300809322
:10029000740090937500A0937600B09377008091DE
:1002A0006F0090917000A0917100B0917200019662
:1002B000A11DB11D80936F0090937000A0937100F9
:1002C000B0937200BF91AF919F918F913F912F9109
:1002D0000F900FBE0F901F90189523EB230F4196A0
:1002E000A11DB11DD2CF1F920F920FB60F921124F4
:1002F0000F900FBE0F901F9018951F920F920FB680
:100300000F9211242F933F934F935F936F937F939B
:100310008F939F93AF93BF93EF93FF93809162006E
:1003200091E0980F9093620060E080FD21C080E032
:100330000EDF60E081E00BDF6091660070E080E03E
:1003400037DF60E081E0D6DE61E081E000DFFF9131
:10035000EF91BF91AF919F918F917F916F915F913D
:100360004F913F912F910F900FBE0F901F901895B6
:1003700080E0EDDE60E081E0EADE6091650070E043
:1003800081E016DF60E080E0B5DE61E080E0DECF96
:10039000CF93DF93CDB7DD27C650CDBF78948AB514
:1003A00082608ABD8AB581608ABD83B7826083BF5F
:1003B00083B7816083BF89B7826089BF80B782605D
:1003C00080BF3298319A309A379A8CB580648CBD50
:1003D00085B7846885BF379880B5816080BD61E04E
:1003E00084E0B5DE60E084E085DE60E083E0AFDEDF
:1003F00061E083E07FDE61E080E0A9DE61E081E032
:10040000A6DE60E080E076DE61E081E073DE0DDF95
:1004100000E010E0EE24E394F12CCC24CA94DC2C10
:1004200033243A94FCE0AF2EFEEFBF2EAAE08A2ED2
:10043000912C6FE3262E40906B0050906C006090E2
:100440006D0070906E002FEF421A520A620A720A13
:1004500040926B0050926C0060926D0070926E0042
:100460002091690030916A00809160009091610054
:10047000820F931F90936A00809369008F3F23E05F
:10048000920709F5D0926100C0926000E091670088
:10049000F0916800E231F10508F09FC0EF5AFD4F7E
:1004A000099418C01CC02DC032C041C05FC095C0A7
:1004B00094C093C092C075C079C07BC07EC081C01B
:1004C00083C085C087C0009709F7F0926100E09271
:1004D0006000DCCF309266003092650004C020924C
:1004E0006600209265001A82198289819A81843679
:1004F00091050CF077C089819A8101969A8389834E
:10050000F4CF81E08093660080936500ECCF803962
:1005100021E0920754F09595879595958795845697
:100520008093650080936600DECF80E0F9CF80394C
:1005300021E09207BCF09C013595279535952795CC
:10054000245620936600803722E092076CF497FDD2
:1005500003969595879595958795919581959109A0
:100560008556D2CF20E0EDCF80E0CECFB301A201FF
:1005700084E075956795579547958A95D1F74F70A3
:100580005527662777274130510561057105B9F078
:1005900081E0443051056105710509F080E08195E5
:1005A000BFCF30926600109265009DCF109266001A
:1005B00093CF51FC04C081E0B3CF50FEFCCF8FEF4E
:1005C000AFCF47FCFCCFF7CF46FCF9CFF4CF45FCCB
:1005D000F6CFF1CF44FCF3CFEECF1092680010922B
:1005E000670081CF64DD2091630030916400892B26
:1005F00049F52F5F3F4F30936400209363002E3EF8
:1006000082E03807B9F48091670090916800019604
:10061000909368008093670021E042162DED52060A
:100620002DE662067104BCF40115110509F403CF2F
:10063000E7DCFFCE2838334179F79092680080924A
:100640006700EACF2A5131091092640010926300CA
:100650002A3D314008F710BE83B7887F83BF61E031
:1006600080E075DD61E081E072DD60E080E042DD28
:1006700060E081E03FDD1C821B828B819C818032A7
:100680009E4430F48B819C8101969C838B83F5CFB3
:100690000EDD892BE9F31E821D828D819E818032C1
:1006A0009E4430F48D819E8101969E838D83F5CF8B
:1006B0008BB780628BBFAB9A379885B7877E806196
:1006C00085BF85B7806285BF78948895F894AB988C
:1006D00085B78F7D85BF7894A8DD10926B0010924E
:1006E0006C0010926D0010926E00B0926400A092A7
:0806F00063009ACFF894FFCFDC
:0206F8000100FF
:00000001FF
